:100000000C948D050C94D3340C9400350C94B505E8
:100010000C94B5050C94B5050C94B5050C94A20888
:100020000C94B5050C94B5050C94B5050C94B50568
:100030000C94B5050C94B5050C94B5050C94B50558
:100040000C942D350C94B5050C94B5050C94B505A0
:100050000C94B5050C94B5050C94B5050C94B50538
:100060000C94FA1C0C94B5052200FF21000001033A
:10007000070F1F3F7F0080C0E0F0F8FCFEDB40A4CC
:10008000A62EAF2000A1C8D300408DAED580A80019
:100090000060000000000000000000000000000000
:1000A000E00000000000000000000000000001E08F
:1000B0000000000000000000000000000001F0004F
:1000C00000000000000000000000000003F000003D
:1000D000000000000000000000000007F000000029
:1000E0000000000000000000000007F80000000011
:1000F0000000000000000000000FF800000003C036
:10010000007E000001E0007F0FF800000003C00047
:10011000FE000001E000FFEFF800000003C000FE59
:10012000000001E000FFFFF800000003C000F00045
:1001300000000F007FFE7FC0000003C000F0000041
:10014000000F003FFE7FF83FF1FBCFFCFEF3BC3D0C
:10015000EFE01FFE7FFF7FFBFFDFFEFEFFBC3DEFFA
:10016000E01FC6FFFF7FFBFFDFFEFEFFBC3DEFE0B1
:100170000FE3C7FE787BC3DE1EF0FFBC3DEF000738
:10018000FF87FC787BC3DE1EF0F83C3DEF0001FFEB
:10019000FFF0007BC3C01EF0F03C3DEF0001F37F99
:1001A000E03FFBC3CFFEF0F03C3DEF0003E33F80B8
:1001B0007FFBC3DFFEF0F03C3DEF0007E73C00783B
:1001C0007BC3DE1EF0F03C3DEF0007FFBE00787BF6
:1001D000C3DE1EF0F03C3DEF0007FFFE00787BC35E
:1001E000DE1EF0F03C3DEF000FFFFE007FFBFFDF67
:1001F000FEF0F03FFDEFE00FFFFF007FFBFFDFFEB3
:10020000F0F03FFDEFE00FF9FF003E79F9CF9EF0EF
:10021000F01F3DE7E01FF1FF0000000000000000BC
:10022000000000001F80FF007FFFFFFFFFFFFFFFB8
:10023000FFFFE01C007F007FFFFFFFFEB46D888D95
:1002400018E000001F007FFFFFFFFE95AD7DB57732
:10025000E000000F007FFFFFFFFEA5AD9D8D19E0C0
:10026000000006007FFFFFFFFEB5ADEDB57EE000AC
:1002700000000000018000000000000000000003FA
:100280008000000000000000000007C00000000027
:10029000000000000007C000000000000000000097
:1002A0000FC00000000000000000001FE000000080
:1002B0000000000000001FE000000000000000003F
:1002C000003FE00000000000000000003FF00000E0
:1002D000000000000000007FF000000000000000AF
:1002E0001FF87FF0000000000000003FFE7FF000DC
:1002F0000000000000003FFF7FF000000000000051
:10030000001FFFFBE0000000000000000FFFF9FFEE
:10031000C00000000000000FFFF9FFF8000000001F
:10032000000007FFF1FFFF00000000000003FC7366
:10033000FFFF80000000000001FE3FFFFF80000083
:1003400000000000FF1E0FFF000000000000007F03
:10035000FE1FFC000000000000003FFFFFF800004F
:1003600000000000000FDFFFE000000000000000C0
:100370001F19FFC0000000000000003F3CFF00000C
:100380000000000000007E7CF8000000000000007B
:10039000007FFE7C0000000000000000FFFFFC006A
:1003A00000000000000000FFFFFE00000000000051
:1003B0000000FFFFFE0000000000000001FFEFFE54
:1003C0000000000000000001FFCFFE000000000060
:1003D000000003FF07FE0000000000000003FC0710
:1003E000FE0000000000000003F003FE000000001B
:1003F000000000018000FE0000000000000000007E
:10040000007E000000000000000000003E00000030
:10041000000000000000000C000000000000078049
:1004200000FC000003C0000000078001FC00000386
:10043000C0000000078001FC000003C000000007AE
:100440008001E00000001E000000078001E00000C5
:10045000001E007FE3F79FF9FDE7787BDFC0FFF721
:10046000FFBFFDFDFF787BDFC0FFF7FFBFFDFDFF96
:10047000787BDFC0F0F787BC3DE1FF787BDE00F0E2
:10048000F787BC3DE1F0787BDE0000F787803DE137
:10049000E0787BDE007FF7879FFDE1E0787BDE0080
:1004A000FFF787BFFDE1E0787BDE00F0F787BC3D1A
:1004B000E1E0787BDE00F0F787BC3DE1E0787BDEB1
:1004C00000F0F787BC3DE1E0787BDE00FFF7FFBF7F
:1004D000FDE1E07FFBDFC0FFF7FFBFFDE1E07FFB59
:1004E000DFC07CF3F39F3DE1E03E7BCFC000000026
:1004F0000000000000000000FFFFFFFFFFFFFFFF04
:10050000FFFFC0FFFFFFFFFD68DB111A31C0FFFFD7
:10051000FFFFFD2B5AFB6AEFC0FFFFFFFFFD4B5BA8
:100520003B1A33C0FFFFFFFFFD6B5BDB6AFDC000C2
:10053000000000003E5B4F5B3E3E6B4F6B3E1C3E3F
:100540007C3E1C183C7E3C181C577D571C1C5E7F53
:100550005E1C00183C1800FFE7C3E7FF00182418D2
:1005600000FFE7DBE7FF30483A060E262979292607
:10057000407F050507407F05253F5A3CE73C5A7FF1
:100580003E1C1C08081C1C3E7F14227F22145F5F47
:10059000005F5F06097F017F006689956A60606081
:1005A000606094A2FFA29408047E040810207E20BC
:1005B0001008082A1C08081C2A08081E1010101011
:1005C0000C1E0C1E0C30383E3830060E3E0E060057
:1005D0000000000000005F00000007000700147F1B
:1005E000147F14242A7F2A12231308646236495682
:1005F00020500008070300001C2241000041221C7B
:10060000002A1C7F1C2A08083E0808008070300061
:100610000808080808000060600020100804023E76
:100620005149453E00427F400072494949462141B7
:10063000494D331814127F1027454545393C4A4926
:100640004931412111090736494949364649492965
:100650001E00001400000040340000000814224175
:100660001414141414004122140802015909063EFE
:10067000415D594E7C1211127C7F494949363E41F9
:100680004141227F4141413E7F494949417F09091A
:1006900009013E414151737F0808087F00417F41B5
:1006A000002040413F017F081422417F40404040EC
:1006B0007F021C027F7F0408107F3E4141413E7F44
:1006C000090909063E4151215E7F0919294626493B
:1006D00049493203017F01033F4040403F1F204012
:1006E000201F3F4038403F6314081463030478041C
:1006F000036159494D43007F4141410204081020E4
:10070000004141417F04020102044040404040005A
:100710000307080020545478407F28444438384464
:10072000444428384444287F385454541800087EE0
:10073000090218A4A49C787F0804047800447D4032
:10074000002040403D007F1028440000417F4000D1
:100750007C047804787C080404783844444438FCE9
:100760001824241818242418FC7C0804040848546D
:1007700054542404043F44243C4040207C1C20402A
:10078000201C3C4030403C44281028444C90909021
:100790007C4464544C44000836410000007700005B
:1007A000004136080002010204023C2623263C1EBA
:1007B000A1A161123A4040207A385454555921552C
:1007C000557941225454784221555478402054554B
:1007D00079400C1E5272123955555559395454549A
:1007E0005939555454580000457C410002457D421A
:1007F0000001457C407D1211127DF0282528F07CF7
:10080000545545002054547C547C0A097F49324990
:100810004949323A4444443A324A4848303A4141DC
:10082000217A3A42402078009DA0A07D3D4242427C
:100830003D3D4040403D3C24FF2424487E494366E2
:100840002B2FFC2F2BFF0929F620C0887E090320BF
:10085000545479410000447D413048484A32384080
:1008600040227A007A0A0A727D0D19317D262929E3
:100870002F28262929292630484D402038080808E5
:100880000808080808382F10C8ACBA2F102834FA06
:1008900000007B000008142A142222142A14085590
:1008A00000550055AA55AA55AAFF55FF55FF00004F
:1008B00000FF00101010FF00141414FF001010FFB0
:1008C00000FF1010F010F0141414FC001414F700C2
:1008D000FF0000FF00FF1414F404FC141417101F91
:1008E00010101F101F1414141F00101010F000001F
:1008F00000001F101010101F10101010F01000003A
:1009000000FF101010101010101010FF1000000049
:10091000FF140000FF00FF00001F10170000FC0480
:10092000F414141710171414F404F40000FF00F763
:1009300014141414141414F700F7141414171410C6
:10094000101F101F141414F4141010F010F00000F5
:100950001F101F0000001F14000000FC140000F016
:1009600010F01010FF10FF141414FF141010101FBB
:1009700000000000F010FFFFFFFFFFF0F0F0F0F0CC
:10098000FFFFFF0000000000FFFF0F0F0F0F0F38E9
:1009900044443844FC4A4A4A347E02020606027E37
:1009A000027E0263554941633844443C04407E2042
:1009B0001E2006027E020299A5E7A5991C2A492A53
:1009C0001C4C7201724C304A4D4D303048784830E2
:1009D000BC625A463D3E494949007E0101017E2ADA
:1009E0002A2A2A2A44445F444440514A444040440D
:1009F0004A51400000FF0103E080FF000008086B3F
:100A00006B083612362436060F090F060000181838
:100A10000000001010003040FF0101001F01011E06
:100A200000191D1712003C3C3C3C00000000005324
:100A30006176656400446F6E6521005475726E20A6
:100A40004F666600496D706F72742046696C650070
:100A5000436C656172204361636865004D616E613E
:100A600067650053656E64696E6700206269740093
:100A7000206269740020626974005265636569765A
:100A8000696E670057694669004D656E75004D6176
:100A90006E6167650053656E64696E6700526563D9
:100AA000656976696E67004A616D6D696E670052AF
:100AB000656374616E676C650000000007000201E9
:100AC0000000030406000000000000000001020412
:100AD00008102040800102040810200102040810C0
:100AE00020040404040404040402020202020203B7
:100AF0000303030303000000002300260029000075
:100B0000000000250028002B000000000024002722
:100B1000002A0000361CC72AFD2A11241FBECFEF71
:100B2000D8E0DEBFCDBF11E0A0E0B1E0ECEBF6E72E
:100B300002C005900D92AC3AB107D9F713E0ACEAC8
:100B4000B1E001C01D92AA3DB107E1F71BE0C8E189
:100B5000DBE004C02297FE010E94FA3AC431D107BB
:100B6000C9F70E946E390C94513B0C940000AF926F
:100B7000BF92CF92DF92EF92FF920F931F93CF938A
:100B8000DF93EC018F8598898835910510F480E01A
:100B900071C0ED85FE8560E672E2828193810E94DC
:100BA0006E08892BA1F3ED85FE8564E971E18481EE
:100BB00095810E948808892B51F35EE1E52EF12C86
:100BC0000DE110E0A12CB12C8F85988904970817AE
:100BD0001907C0F5ED85FE85C801880F991FE80F3C
:100BE000F91F64EF71E0808191810E946E08892B6A
:100BF00071F26701CC0CDD1CED85FE85EC0DFD1D51
:100C000068E572E0808191810E948808892B29F033
:100C1000AA0CBB1C6894A0F80EC0ED85FE85EC0DF7
:100C2000FD1D64EA76E0808191810E948808892B0D
:100C300041F0AA0CBB1C0E5F1F4F82E0E80EF11CB6
:100C4000C3CF8701015011091695079519870887A9
:100C50000A3211050CF49BCFA501662757FD60955C
:100C6000762F4C835D836E837F8381E090E0998350
:100C7000888381E0DF91CF911F910F91FF90EF90DA
:100C8000DF90CF90BF90AF9008950F931F93CF93B5
:100C9000DF93EC018B010E94B70592E1FE01D801C0
:100CA00001900D929A95E1F7DF91CF911F910F91ED
:100CB00008958F929F92AF92BF92CF92DF92EF9260
:100CC000FF920F931F93CF93DF93EC018F85988949
:100CD0004A9708F478C0ED85FE852081318142E392
:100CE000429FC001439F900D1124843F914070F4B6
:100CF000198618864FEF5FEFBA014C835D836E83D0
:100D00007F8381E08C878FEF9FEF65C060E679E09D
:100D1000828193810E946E08892B09F454C053E0AC
:100D2000A52EB12C02E010E0C12CD12C76018F85CC
:100D30009889A816B90678F4ED85FE85C801880F54
:100D4000991FE80FF91F68E572E0808191810E9488
:100D50008808892B61F401501109169507951987A8
:100D600008870C3011058CF5198618862CC04501B2
:100D7000880C991CED85FE85E80DF91D60EB74E08B
:100D8000808191810E946E08892B39F0CC0CDD1C8A
:100D9000EE1CFF1C6894C0F810C0ED85FE85E80DC0
:100DA000F91D68E572E0808191810E946E08892BAF
:100DB00051F0CC0CDD1CEE1CFF1C0E5F1F4F82E0BF
:100DC000A80EB11CB4CF80E009C0CC82DD82EE82D7
:100DD000FF8283E190E09983888381E0DF91CF9166
:100DE0001F910F91FF90EF90DF90CF90BF90AF9049
:100DF0009F908F9008950F931F93CF93DF93EC01F3
:100E00008B010E94590692E1FE01D80101900D92DA
:100E10009A95E1F7DF91CF911F910F9108958F92ED
:100E20009F92AF92BF92CF92DF92EF92FF920F9379
:100E30001F93CF93DF93EC018F859889829708F4F5
:100E400062C0ED85FE856EE571E0828193810E942E
:100E50006E08892B09F457C063E0A62EB12C02E07E
:100E600010E0C12CD12C76018091B0019091B1019C
:100E7000A816B906E8F54801880C991CED85FE8591
:100E8000E80DF91D6EE977E0808191810E946E087E
:100E9000892B39F0CC0CDD1CEE1CFF1C6894C0F8CB
:100EA00010C0ED85FE85E80DF91D6EEE72E08081C3
:100EB00091810E946E08892B31F1CC0CDD1CEE1C57
:100EC000FF1CED85FE85C501880F991FE80FF91FEE
:100ED0006EE571E0808191810E94880895012E5F06
:100EE0003F4F892B21F00E5F1F4F5901BDCF850168
:100EF00001501109169507951987088700311105CA
:100F000024F41986188680E009C0CC82DD82EE8246
:100F1000FF8289E090E09983888381E0DF91CF911F
:100F20001F910F91FF90EF90DF90CF90BF90AF9007
:100F30009F908F9008950F931F93CF93DF93EC01B1
:100F40008B010E940F0792E1FE01D80101900D92E2
:100F50009A95E1F7DF91CF911F910F910895CF926C
:100F6000DF92EF92FF920F931F93CF93DF93EC01E9
:100F70008091B0019091B101C99710F480E03CC01C
:100F8000ED85FE8560ED70E2828193810E946E089E
:100F9000892BA1F3ED85FE8568E670E1848195815A
:100FA0000E948808892B51F3CC24C39486E2E82E52
:100FB00082E0F82E00E416E028E532E043E06CE140
:100FC000CE010E94E3106B017C01ED85FE8568E592
:100FD00072E0868197810E946E08892B79F28CE1FC
:100FE00090E099878887CC82DD82EE82FF8287E05D
:100FF00090E09983888381E0DF91CF911F910F91D9
:10100000FF90EF90DF90CF9008950F931F93CF93B1
:10101000DF93EC018B010E94AF0792E1FE01D80142
:1010200001900D929A95E1F7DF91CF911F910F9169
:1010300008958F92AF92CF92DF92EF92FF920F932B
:101040001F93CF93DF93EC016A017B01A22E66E22E
:1010500070E00E94C21260ED70E2CE010E942C137B
:1010600068E670E1CE010E943A138824839406E278
:1010700012E028E532E040E456E068E572E0CE0197
:101080000E94481368E572E0CE010E942C1360E0D4
:1010900070E0CE01DF91CF911F910F91FF90EF9003
:1010A000DF90CF90AF908F900C943A139C01FB018E
:1010B000CB0163E470E00E94A33A261737075CF087
:1010C000CF0168E270E00E94A33A6F5F7F4F81E03A
:1010D000621773070CF480E090E008959C01FB0117
:1010E000EC59FF4FCF0163E470E00E94A33A26174A
:1010F00037075CF0CF0168E270E00E94A33A6F5FAF
:101100007F4F81E0621773070CF480E090E0089550
:101110009C01FB01E456F109CF0163E470E00E94F9
:10112000A33A261737075CF0CF0168E270E00E940F
:10113000A33A6F5F7F4F81E0621773070CF480E082
:1011400090E008951F920F920FB60F9211242F93E3
:101150003F934F935F936F937F938F939F93AF933F
:10116000BF93EF93FF938091AD010E941B37982F9F
:101170002091B2013091B3012F5F3F4F3093B30103
:101180002093B2014091B0015091B1014536510513
:1011900030F081E080937E0283E08093AC01809107
:1011A000AC01811117C0911157C02436310528F4C4
:1011B0001092B3011092B2014FC010927E0241E032
:1011C00050E05093B1014093B0013093B5012093AA
:1011D000B40130C08091AC018130C1F49130E1F5AF
:1011E000BA016F5F7F4F7093B1016093B001FA0154
:1011F000EE0FFF1FEC54FE4F318320831092B3019A
:101200001092B20182E08093AC0126C08091AC01C3
:101210008230D9F4911114C0BA016F5F7F4F70937F
:10122000B1016093B001FA01EE0FFF1FEC54FE4FC5
:10123000318320831092B3011092B20181E0E3CF99
:101240002536310548F083E0DECF8091AC01833054
:1012500019F4992309F4ACCF8091AF01882389F068
:101260008091AE01911106C0882311F061E005C0A4
:101270002D9A07C0882321F060E00E94E53601C066
:101280002D98FF91EF91BF91AF919F918F917F9199
:101290006F915F914F913F912F910F900FBE0F90E3
:1012A0001F901895CF92DF92EF92FF920F931F93AA
:1012B000CF93DF93EC018F8598898634910510F4E4
:1012C00080E051C0ED85FE856EEE72E082819381F3
:1012D0000E946E08892BA1F3ED85FE856EEE72E00B
:1012E000848195810E948808892B51F3ED85FE85C4
:1012F00062E27BE0868197810E946E08892B01F370
:10130000ED85FE8562E27BE0808591850E948808FC
:10131000892BB1F2CC24C3948EEEE82E82E0F82E15
:1013200006E618E02EEE32E045E060E2CE010E94D3
:10133000E3106B017C01ED85FE856EEE72E0828527
:1013400093850E946E08892B09F4BACF80E290E061
:1013500099878887CC82DD82EE82FF8284E190E0EB
:101360009983888381E0DF91CF911F910F91FF9046
:10137000EF90DF90CF9008950F931F93CF93DF935B
:10138000EC018B010E94520992E1FE01D80101900B
:101390000D929A95E1F7DF91CF911F910F910895EA
:1013A0008F929F92AF92BF92CF92EF92FF920F9344
:1013B0001F93CF93DF93EC01ED85FE856EEA7DE010
:1013C000828193810E946E08892B11F480E031C0E4
:1013D000ED85FE8566ED76E0848195810E946E083C
:1013E000892BA1F3CC24C39480E9E82EFF24F39445
:1013F0000CED14E026EF31E043E060E1CE010E9405
:10140000E3104B015C0126EF31E043E160E2CE01E5
:101410000E94E3106C837D838E839F839B828A82EC
:101420008CE090E09983888380E390E099878887B7
:1014300081E0DF91CF911F910F91FF90EF90CF90BE
:10144000BF90AF909F908F9008950F931F93CF936D
:10145000DF93EC018B010E94D00992E1FE01D801DB
:1014600001900D929A95E1F7DF91CF911F910F9125
:1014700008958F929F92AF92BF92CF92DF92EF9298
:10148000FF920F931F93CF93DF93EC018F85988981
:101490004A9708F483C0ED85FE852081318142E3BF
:1014A000429FC001439F900D11248032934060F40D
:1014B000198618864FEF5FEFBA014C835D836E8308
:1014C0007F8381E08C8770C06CEA7DE082819381AC
:1014D0000E946E08892B09F461C0ED85FE856CEAD7
:1014E0007DE0848195810E946E08892B09F456C0A5
:1014F00054E0A52EB12C03E010E0C12CD12C7601D4
:101500008091B0019091B101A816B90678F4ED85EB
:10151000FE85C801880F991FE80FF91F66EB73E07D
:10152000808191810E948808892B61F40150110902
:1015300016950795198708870C3011058CF51986C3
:1015400018862CC04501880C991CED85FE85E80D98
:10155000F91D60E679E0808191810E946E08892BF7
:1015600039F0CC0CDD1CEE1CFF1C6894C0F810C0D8
:10157000ED85FE85E80DF91D6CEB72E080819181AF
:101580000E946E08892B51F0CC0CDD1CEE1CFF1C58
:101590000E5F1F4F82E0A80EB11CB2CF80E009C0E1
:1015A000CC82DD82EE82FF8280E190E099838883A5
:1015B00081E0DF91CF911F910F91FF90EF90DF902D
:1015C000CF90BF90AF909F908F9008950F931F93EF
:1015D000CF93DF93EC018B010E94390A92E1FE0167
:1015E000D80101900D929A95E1F7DF91CF911F916B
:1015F0000F910895EF92FF920F931F93CF93DF9374
:10160000EC018F8598898097C0F1ED85FE8566E9AC
:1016100070E086AD97AD0E946E08892B71F1ED8563
:10162000FE856CEB72E084AD95AD0E948808892B35
:1016300021F1ED85FE8520813181A2E3B0E00E9499
:10164000653A6135734C81059105CCF480910001B8
:10165000811111C0198618864FEF5FEFBA014C83D4
:101660005D836E837F8381E08C8781E190E0998345
:10167000888381E047C01092000180E043C004E30A
:1016800010E0E12CF12CED85FE85E00FF11F66EDF9
:1016900076E0808191810E948808892B29F0EE0CE8
:1016A000FF1C6894E0F80EC0ED85FE85E00FF11F89
:1016B0006CEB72E0808191810E948808892BE9F2AD
:1016C000EE0CFF1C04501109F1F68DE090E09987B3
:1016D0008887C7018072992701979B838A83A70116
:1016E00085E0569547958A95E1F760E070E04C8378
:1016F0005D836E837F8382E190E09983888381E0BC
:1017000080930001DF91CF911F910F91FF90EF9097
:1017100008950F931F93CF93DF93EC018B010E94E9
:10172000FA0A92E1FE01D80101900D929A95E1F733
:10173000DF91CF911F910F9108952F923F924F9279
:101740005F926F927F928F929F92AF92BF92CF9251
:10175000EF92FF920F931F93CF93DF9300D000D0AF
:101760001F92CDB7DEB79D838C838091B00190919D
:10177000B1018032910529F08036910539F080E081
:1017800082C021E030E03A83298304C083E090E006
:101790009A838983AC81BD811D96ED91FC911E9742
:1017A00066E970E0828193810E946E08892B39F38B
:1017B000AC81BD811D96ED91FC911E976DE077E0A7
:1017C000848195810E948808892B71F4AC81BD8148
:1017D0001D96ED91FC911E976BE173E084819581DC
:1017E0000E948808892B59F251E0612C712C812CC0
:1017F000912C5401CC24C3948BE1E82E83E0F82E85
:101800000DE017E02AEF30E0452F65E08C819D81E7
:101810005B830E94E3101B012C012AEF30E05B8107
:1018200045E0450F68E08C819D810E94E3105B815B
:1018300081149104A104B10431F0681579058A0579
:101840009B0509F09CCF4B015C018094BFEF6B1AA4
:101850007B0A5A5FE981FA816E167F065CF22FE0FF
:1018600030E0AC81BD8119963C932E931897FD0111
:1018700064837583868397833382228281E190E03B
:101880009183808381E00F900F900F900F900F90C5
:10189000DF91CF911F910F91FF90EF90CF90BF906C
:1018A000AF909F908F907F906F905F904F903F9000
:1018B0002F9008950F931F93CF93DF93EC018B012B
:1018C0000E949D0B92E1FE01D80101900D929A9524
:1018D000E1F7DF91CF911F910F910895CF93DF939F
:1018E000EC0166E270E00E94C21268E273E2CE018F
:1018F0000E942C136AEC78E0CE010E943A1360E358
:1019000072E0CE010E942C1360E070E0CE01DF9106
:10191000CF910C943A138F92AF92CF92DF92EF92C5
:10192000FF920F931F93CF93DF93EC016A017B012A
:10193000A22E66E270E00E94C2128FEFC816D8068F
:10194000E806F80611F0002369F0CE01DF91CF918F
:101950001F910F91FF90EF90DF90CF90AF908F90FD
:101960000C946E0C68E273E2CE010E942C1364E9C1
:1019700071E1CE010E943A138824839400E312E0BF
:1019800020E332E04AE956E060E372E0CE010E94D3
:10199000481360E372E0CE010E942C1360E070E017
:1019A000CE01DF91CF911F910F91FF90EF90DF90CB
:1019B000CF90AF908F900C943A13CF92EF92FF920A
:1019C0000F931F93CF93DF93EC01ED85FE8568E2C3
:1019D00073E2828193810E946E08892B11F480E06A
:1019E00050C08F859889049729F5ED85FE856AECAE
:1019F00078E0848195810E948808892BD9F0ED8553
:101A0000FE8560E372E0868197810E946E08892BD3
:101A100089F0198618864FEF5FEFBA014C835D831A
:101A20006E837F8381E08C878BE090E0998388834D
:101A300081E027C08F8598898434910580F2ED85F7
:101A4000FE8564E971E1848195810E948808892B73
:101A500031F2CC24C39480E3E82E82E0F82E0AE928
:101A600016E020E332E043E060E2CE010E94E310A2
:101A700020E230E0398728876C837D838E839F83C3
:101A8000D3CFDF91CF911F910F91FF90EF90CF9027
:101A900008950F931F93CF93DF93EC018B010E9466
:101AA000DD0C92E1FE01D80101900D929A95E1F7CB
:101AB000DF91CF911F910F910895CF92EF92FF92F6
:101AC0000F931F93CF93DF93EC01ED85FE8564E9BF
:101AD00071E1828193810E946E08892B11F480E06C
:101AE00054C08091B0019091B101049729F5ED8522
:101AF000FE856AEC78E0848195810E948808892BB4
:101B0000D9F0ED85FE8560E372E0868197810E94C1
:101B10006E08892B89F0198618864FEF5FEFBA019E
:101B20004C835D836E837F8381E08C878FE090E0C0
:101B30009983888381E029C08091B0019091B1019F
:101B40008434910560F2ED85FE8564E971E184815C
:101B500095810E948808892B11F2CC24C39480E3DC
:101B6000E82E82E0F82E00E416E020E332E043E0C5
:101B700060E2CE010E94E31020E230E0398728873E
:101B80006C837D838E839F83D1CFDF91CF911F9113
:101B90000F91FF90EF90CF9008950F931F93CF93E5
:101BA000DF93EC018B010E945D0D92E1FE01D801F3
:101BB00001900D929A95E1F7DF91CF911F910F91CE
:101BC00008958F929F92AF92BF92CF92DF92EF9241
:101BD000FF920F931F93CF93DF938B017A015901EB
:101BE000DB01CD91DC91FC0127853089C217D30739
:101BF00008F04AC09E01220F331F0584F685E02DB0
:101C0000E20FF31FC080D180C170DD27F1E0CF2744
:101C1000209719F484E690E002C08CE99FEF45011B
:101C2000880E991EB401C6010E945608892B99F4AA
:101C30008A0C9B1CB401C6010E945608892B71F4C2
:101C4000B4016A0D7B1DC6010E945608892BF9F06C
:101C500023E030E005C021E030E002C022E030E0C7
:101C6000D7018D919C91119701968217930744F0AB
:101C7000F70111821082D8018D919C9111970196E4
:101C80008D939C93CE0105C081E090E002C08FEF60
:101C90009FEFDF91CF911F910F91FF90EF90DF9019
:101CA000CF90BF90AF909F908F9008958F929F920A
:101CB000AF92BF92CF92DF92EF92FF920F931F935A
:101CC000CF93DF9300D000D0CDB7DEB78C011C825C
:101CD0001B8281E090E09A838983F801878590894F
:101CE0000D9710F480E072C029E733E0AE014D5F3C
:101CF0005F4FBE016F5F7F4FC8010E94E10D892BCE
:101D000089F729E733E0AE014D5F5F4FBE016F5F9A
:101D10007F4FC8010E94E10D019721F729E733E0C9
:101D2000AE014D5F5F4FBE016F5F7F4FC8010E94E4
:101D3000E10D892BB9F6C12CD12C7601A12CB12C47
:101D400029813A81F801878590892817390798F504
:101D500029E733E0AE014D5F5F4FBE016F5F7F4FFC
:101D6000C8010E94E10D4C0129E733E0AE014D5F4F
:101D70005F4FBE016F5F7F4FC8010E94E10DF1E030
:101D80008F16910451F4892B09F0ACCFCC0CDD1CDB
:101D9000EE1CFF1C6894C0F80AC0892809F0A2CF85
:101DA000019709F09FCFCC0CDD1CEE1CFF1C2FEF20
:101DB000A21AB20AC5CFB186A086C482D582E682B5
:101DC000F7828DE090E09183808381E00F900F9007
:101DD0000F900F90DF91CF911F910F91FF90EF9097
:101DE000DF90CF90BF90AF909F908F9008950F930A
:101DF0001F93CF93DF93EC018B010E94560E92E16B
:101E0000FE01D80101900D929A95E1F7DF91CF91F3
:101E10001F910F9108954F925F926F927F92AF92B0
:101E2000BF92CF92DF92EF92FF920F931F93CF93C7
:101E3000DF9300D000D0CDB7DEB78C011C821B82AF
:101E400081E090E09A838983D8011F968D919C91BF
:101E50005097892B11F480E0B8C0D8011D96ED9100
:101E6000FC911E976AE67AE0828193810E946E0857
:101E7000892B89F389819A8101969A838983880FB6
:101E8000991FD8011D96ED91FC911E97E80FF91F3F
:101E900069E773E0808191810E948808892BD9F2DB
:101EA00089819A8101969A8389832CEB31E0AE0176
:101EB0004D5F5F4FBE016F5F7F4FC8010E94E10D14
:101EC000892B49F62CEB31E0AE014D5F5F4FBE012F
:101ED0006F5F7F4FC8010E94E10D019709F0BBCFF2
:101EE000412C512C3201E12CF12C29813A81F8014D
:101EF000878590892817390708F05CC02CEB31E002
:101F0000AE014D5F5F4FBE016F5F7F4FC8010E9402
:101F1000E10D5C01B3E0EB16F10489F02CEB31E04C
:101F2000AE014D5F5F4FBE016F5F7F4FC8010E94E2
:101F3000E10D6C01E3E0EE16F104F9F40FC02CEBB7
:101F400031E0AE014D5F5F4FBE016F5F7F4FC80153
:101F50000E94E10DA816B90609F37DCF2CEB31E004
:101F6000AE014D5F5F4FBE016F5F7F4FC8010E94A2
:101F7000E10DC816D90609F06ECFA114B10459F4C9
:101F8000CA94CD2809F067CF440C551C661C771CF9
:101F9000689440F80BC0AA94AB2809F05CCFCD2818
:101FA00009F059CF440C551C661C771CAFEFEA1A98
:101FB000FA0A9BCFF186E086448255826682778258
:101FC0008EE090E09183808381E00F900F900F90DE
:101FD0000F90DF91CF911F910F91FF90EF90DF90C5
:101FE000CF90BF90AF907F906F905F904F9008958B
:101FF0000F931F93CF93DF93EC018B010E940B0F84
:1020000092E1FE01D80101900D929A95E1F7DF91DE
:10201000CF911F910F910895CF92DF92EF92FF928F
:102020000F931F93CF93DF93EC018F85988982974D
:1020300069F5ED85FE8568E572E0828193810E94F5
:102040006E08892B19F18F85988981509048880FE7
:10205000991FED85FE85E80FF91F68E572E0808124
:1020600091810E946E08892B89F0198618868FEF5E
:102070009FEFDC018C839D83AE83BF8381E08C87DF
:1020800085E090E09983888381E03EC0ED85FE8500
:1020900060ED70E2828193810E946E08892B21F0AD
:1020A0008F859889819710F480E02EC0ED85FE859C
:1020B00068E670E1848195810E948808892BA1F3EC
:1020C000CC24C39486E2E82E82E0F82E00E416E0E9
:1020D00028E532E043E060E1CE010E94E3106B01AD
:1020E0007C01ED85FE8568E572E0868197810E941E
:1020F0006E08892BC9F280E190E099878887CC82AD
:10210000DD82EE82FF82BCCFDF91CF911F910F91D4
:10211000FF90EF90DF90CF9008950F931F93CF9390
:10212000DF93EC018B010E940C1092E1FE01D801BB
:1021300001900D929A95E1F7DF91CF911F910F9148
:1021400008956093AD011092AF010895F89482E074
:102150008093B0008093B10094E69093B300109206
:10216000B2008093700078941092AC0160E080918E
:10217000AD010C94AC361092AC010895EAE0E49FF6
:102180009001E59F300D1124CB01F3E0880F991FDA
:10219000FA95E1F72817390780F0E69FC001E79F1D
:1021A000900D112423E0440F551F2A95E1F7841761
:1021B000950730F482E090E0089580E090E0089583
:1021C00081E090E008952F923F924F925F926F923C
:1021D0007F928F929F92AF92BF92CF92DF92EF92B7
:1021E000FF920F931F93CF93DF9300D000D0CDB712
:1021F000DEB79C838B83862E942E3A832983180125
:102200005701C11008C0412C512C32014394C12CFC
:10221000D12C760185C0712CC12CD12C760178147B
:1022200009F491C0AB81BC811D969C911D971E96AF
:102230008C91E92FF82FE90DF11DE90DF11D698150
:102240007A81808191810E946E08892B29F460E057
:1022500070E080E090E079C001E0090D10E0000F2F
:10226000111FAB81BC811D96ED91FC911E97E00F73
:10227000F11FB101808191810E948808892B39F07A
:10228000CC0CDD1CEE1CFF1C6894C0F813C0AB81A5
:10229000BC811D96ED91FC911E97E00FF11FB501D9
:1022A000808191810E948808892B89F2CC0CDD1CE9
:1022B000EE1CFF1C939493947394B1CFEB81FC813B
:1022C00095858685E92FF82FE90DF11DE90DF11DA2
:1022D00069817A81808191810E946E08892B09F43D
:1022E000B6CF01E0090D10E0000F111FAB81BC81DA
:1022F0001D96ED91FC911E97E00FF11FB1018081B9
:1023000091810E948808892B71F0C428D528E6287D
:10231000F72893949394440C551C661C771C8A945C
:102320008110CCCF10C0AB81BC811D96ED91FC918A
:102330001E97E00FF11FB501808191810E948808EE
:10234000892B39F784CFB601C7010F900F900F90FA
:102350000F90DF91CF911F910F91FF90EF90DF9041
:10236000CF90BF90AF909F908F907F906F905F9035
:102370004F903F902F9008958F929F92AF92BF926F
:10238000CF92DF92EF92FF920F931F93CF93DF9341
:10239000EC01CF84D88886E0C816D10408F446C082
:1023A000E12CF12C02E010E035EC832E3DE9932E78
:1023B0003CE1A32E31E8B32E0F5F1F4F82E0E80E01
:1023C000F11C0C151D0521F18D859E85F801EE0F80
:1023D000FF1FE80FF91F40815181FC01EE0DFF1D29
:1023E00060817181CE010E94BE10FC01A5019401A3
:1023F00063E971E080E091E00E947F3A4F01AA24F6
:1024000097FCA094BA2C86269726A826B926D4CF66
:102410008C829D82AE82BF8280E290E0998788871D
:102420008FEF9FEF9983888381E001C080E0DF9187
:10243000CF911F910F91FF90EF90DF90CF90BF90C1
:10244000AF909F908F9008950F931F93CF93DF933A
:10245000EC018B010E94BC1192E1FE01D8010190B8
:102460000D929A95E1F7DF91CF911F910F91089509
:102470000F931F93CF93DF93EC018B018091AC01FD
:10248000833009F079C084EB91E09E878D8780913D
:10249000B0019091B101988B8F8781E090917E027D
:1024A000911101C080E0898B1B821A821C86B801C1
:1024B000CE010E94490D882311F081E05EC0B80171
:1024C000CE010E945A0C8111F8CFB801CE010E94B2
:1024D000890B8111F2CFB801CE010E94FB06811158
:1024E000ECCFB801CE010E94E60A8111E6CFB80117
:1024F000CE010E949B078111E0CFB801CE010E945E
:10250000F70E8111DACFB801CE010E94F80F8111C8
:10251000D4CFB801CE010E94250A8111CECFB801D7
:10252000CE010E9405088111C8CFB801CE010E94DA
:102530008D108111C2CFB801CE010E94CD0D811145
:10254000BCCFB801CE010E94BC098111B6CFB80141
:10255000CE010E9445068111B0CFB801CE010E9484
:1025600013148111AACFB801CE010E942412811147
:10257000A4CF1092AC0101C080E0DF91CF911F91F8
:102580000F9108950F931F93CF93DF93EC018B016D
:102590001092700061E088810E94AC3660E0888112
:1025A0000E94E536980140E050E060E47FE180E081
:1025B00090E00E94D93A81E08093B00089E0809356
:1025C000B1002093B3006EE1629FC001639F900D44
:1025D000112464E670E00E948F3A6093B400DF91AA
:1025E000CF911F910F9108958F929F92AF92BF92BA
:1025F000CF92DF92EF92FF926A017B014530510545
:102600006105710500F10E9483354B015C0184E096
:10261000C81AD108E108F108C80CD91CEA1CFB1C37
:10262000C814D904EA04FB0438F40E9483358616E2
:102630009706A806B906C8F30E9483356C157D0578
:102640008E059F05C8F3FF90EF90DF90CF90BF906D
:10265000AF909F908F9008952091B00020622093BA
:10266000B0006115710529F0AB0160E070E00C94D9
:10267000F41208952091B0002F7D2093B0006115D1
:10268000710529F0AB0160E070E00C94F41208953C
:102690002F923F924F925F926F927F928F929F9272
:1026A000AF92BF92CF92DF92EF92FF920F931F9360
:1026B000CF93DF9300D0CDB7DEB73C012B015A8317
:1026C00049831901882D8A2C912C811103C0A12CDA
:1026D000B12C42C0C4010197812C912C54018394E8
:1026E00004C0880C991CAA1CBB1C8A95D2F78114C3
:1026F0009104A104B104D1F1D501C4018C219D2123
:10270000AE21BF21892B8A2B8B2B39F0B201C3015B
:102710000E942C1369817A8105C0B101C3010E9416
:102720002C13B801C3010E943A13B694A79497944E
:102730008794DDCFC0FE14C0B201C3010E942C13E8
:1027400069817A81C3010E943A138FEFA81AB80AEF
:10275000F694E794D794C794A814B90458F306C024
:10276000B101C3010E942C13B801ECCF0F900F9060
:10277000DF91CF911F910F91FF90EF90DF90CF905D
:10278000BF90AF909F908F907F906F905F904F9091
:102790003F902F900895CF92EF92FF920F931F9347
:1027A000CF93DF93EC018091B0019091B1018097BC
:1027B00011F080E030C0ED85FE856CE271E0828131
:1027C00093810E946E08892BA1F3ED85FE856EEE44
:1027D00072E0848195810E948808892B51F3CC2472
:1027E000C3948EEEE82E82E0F82E08E017E02CE28B
:1027F00031E043E06EE0CE010E94E3102EE030E0D5
:10280000398728876C837D838E839F8383E090E064
:102810009983888381E0DF91CF911F910F91FF9081
:10282000EF90CF9008950F931F93CF93DF93EC0118
:102830008B010E94CB1392E1FE01D80101900D9211
:102840009A95E1F7DF91CF911F910F910895FC01C7
:1028500077FDBBC080859185681779070CF0B5C0FE
:1028600057FDB3C082859385481759070CF008952A
:102870008689823079F484819581DC01A61BB70BAF
:10288000BD016150710986819781DC01A41BB50BE4
:10289000AD010EC0833009F087C064277527CB01D6
:1028A000842795276827792746815781481B590B2C
:1028B000415051092130310531F050F122303105BC
:1028C00009F44CC00895CA0157FD0796DC0123E0C6
:1028D000B595A7952A95E1F724813581A29FC0017E
:1028E000A39F900DB29F900D1124860F971F078C08
:1028F000F0A1E02DE80FF91F4770552781E090E027
:10290000042E01C0880F0A94EAF79081982B4AC0E0
:10291000CA0157FD0796DC0193E0B595A7959A95F6
:10292000E1F724813581A29FC001A39F900DB29F42
:10293000900D1124860F971F078CF0A1E02DE80F52
:10294000F91F4770552781E090E0042E01C0880FE1
:102950000A94EAF780959081982324C0CA0157FD14
:102960000796DC0183E0B595A7958A95E1F7248168
:102970003581A29FC001A39F900DB29F900D11249D
:10298000860F971F078CF0A1E02DE80FF91F477005
:10299000552781E090E0042E01C0880F0A94EAF7E1
:1029A0009081982790830895813009F083CF642720
:1029B000752746275727CA0186279727648175817F
:1029C000681B790B6150710975CF089520914103FF
:1029D000222399F03FB7F89420914103213059F414
:1029E0002DB320933F034DB3209140032095242322
:1029F0002DBB3FBF02C030933F038CBD9DBD0895EA
:102A00008EBD00000DB407FEFDCF8EB508958091F8
:102A10004103882361F09FB7F8942091410380918E
:102A20003F03213019F48DBB9FBF08958FBF0895D8
:102A30004F925F926F927F928F929F92AF92BF92CE
:102A4000CF92DF92EF92FF920F93CF93DF93CDB7A8
:102A5000DEB73C01290150E070E00E94272180E5AB
:102A600091E0F30191838083148E138E41145104FD
:102A700019F48FE792E001C0C201F301968F858FB0
:102A800010A2178E8FEF84A385A386A387A300A728
:102A9000C5AAD6AAE7AAF0AE81AE92AEA3AEB4AEF6
:102AA00080E586AF17AEDF91CF910F91FF90EF9049
:102AB000DF90CF90BF90AF909F908F907F906F905E
:102AC0005F904F900895CF93DF93EC0180E591E004
:102AD000998388838F8D98A1009721F00E941434E8
:102AE00018A21F8EDF91CF9108951F93CF93DF938C
:102AF000EC01162F8D8D9E8D009709F169A1772726
:102B000067FD70950E941E1C8D8D9E8DDC01ED91E0
:102B1000FC910190F081E02D60E009958D8D9E8DF6
:102B2000DC01ED91FC910190F081E02D612F099580
:102B30008D8D9E8DDF91CF911F910C94331CEDA54F
:102B4000FEA590818BA98095892380838B8D9C8D98
:102B5000892B31F0862FDF91CF911F910C940015B6
:102B600028E030E090E8E9A5FAA589A9492F41239A
:102B700021F04081482B408304C04081809584230C
:102B80008083EBA5FCA580814AA9842B8083EBA5DB
:102B9000FCA540818AA98095842380839695215045
:102BA000310909F7DF91CF911F9108951F93CF93BA
:102BB000DF93EC01162F8D8D9E8D009739F04DA976
:102BC0005EA96FA978AD0E94101C0FC08B8D9C8DE3
:102BD000892B21F08EAD9FAD0E94E614EFA5F8A9D8
:102BE00090818CA9809589238083112311F067EA55
:102BF00001C066EACE010E9475158D8D9E8D0097ED
:102C000049F049AD5AAD6BAD7CADDF91CF911F91CD
:102C10000C94101CEFA5F8A980819CA9892B8083B6
:102C20008B8D9C8D892B29F0DF91CF911F910C9476
:102C30000715DF91CF911F910895AF92BF92DF9258
:102C4000EF92FF920F931F93CF93DF931F92CDB715
:102C5000DEB75C01D62EF72EDC015D968D919C913E
:102C60005E97009709F45DC091962C91622F7727AB
:102C700067FD709549830E941E1CF501858D968D18
:102C8000DC01ED91FC910190F081E02D60E009956F
:102C90000D2D1F2DEE24E394F12C4981D40EF50166
:102CA000858D968DD01689F1B0E2EB16F104D8F03F
:102CB0000E94331CF50161A1772767FD7095858D12
:102CC000968D0E941E1CD5015D968D919C915E97FC
:102CD000DC01ED91FC910190F081E02D60E009951F
:102CE000EE24E394F12CF501858D968DF801649125
:102CF000DC01ED91FC910190F081E02D0995BFEF91
:102D0000EB1AFB0A0F5F1F4FCACF0F90DF91CF91D5
:102D10001F910F91FF90EF90DF90BF90AF900C94B8
:102D2000331CD5019D96ED91FC919E979081D39691
:102D30008C91809589238083062F172FD40ED0166F
:102D400009F43DC0F8018491D5015B962D913C9129
:102D50005C97232B19F00E9400152EC028E030E06C
:102D600050E8D5019996ED91FC919A97D1969C9156
:102D7000452F482321F06081692B608304C0408186
:102D8000909594239083D5019B96ED91FC919C970F
:102D90009081D2964C91D297942B90839B96ED91F3
:102DA000FC919C974081D2969C919095942390831E
:102DB000569521503109A9F60F5F1F4FC0CF0F90D4
:102DC000DF91CF911F910F91FF90EF90DF90BF9017
:102DD000AF900895FC0126813781C901079697FFBE
:102DE00002C0C9010E9623E0959587952A95E1F7D3
:102DF00024813581829FA001839F500D929F500DA9
:102E0000112460E070E0878D90A10C94073B8F92B5
:102E10009F92AF92BF92CF92DF92EF92FF920F9369
:102E20001F93CF93DF93EC01862E942EB22EA02E0B
:102E30008F8D98A1892BF9F42E813F81C9010796C6
:102E400097FF02C0C9010E9623E0959587952A95B4
:102E5000E1F72C813D81AC01429FC001439F900D61
:102E6000529F900D11240E947C3398A38F8F892B41
:102E700011F480E090C1CE010E94EA168E819F81FC
:102E80002C813D8181329105ECF0AC014054510917
:102E900057FF03C0AC014F53510955954795C901E0
:102EA0008255910997FD0196BC0175956795CC24D3
:102EB000C394D12C80E4E82EF12C02E510E02FE63B
:102EC00032E01CC0AC014052510957FF03C0AC01B5
:102ED0004F51510955954795C9018357910997FD60
:102EE0000196BC0175956795CC24C394D12CA0E2C2
:102EF000EA2EF12C03E710E02FE830E0CE010E942B
:102F000003258AA28D8D9E8D009799F0992011F04E
:102F1000292D08C02E813F812032310511F42CE388
:102F200001C02DE329A3AA2009F47CC00E94061C3D
:102F300079C061E08EA10E94AC3661E08FA10E9451
:102F4000AC368EA1992787FD9095FC01EF51F54F86
:102F5000E491F0E0EE0FFF1FE150F54F2591349121
:102F60003EA72DA7FC01E353F54F84918BAB8FA1B6
:102F7000992787FD9095FC01EF51F54FE491F0E022
:102F8000EE0FFF1FE150F54FA591B491B8ABAFA77D
:102F9000FC01E353F54F84918CAB9C91982B9C934F
:102FA0008B8D9C8D892B31F0AA2009F43BC00E94A7
:102FB000271E38C061E08CA10E94AC3661E08DA173
:102FC0000E94AC368CA1992787FD9095FC01EF51AA
:102FD000F54FE491F0E0EE0FFF1FE150F54F259122
:102FE00034913AA729A7FC01E353F54F849189ABAB
:102FF0008DA1992787FD9095FC01EF51F54FE49144
:10300000F0E0EE0FFF1FE150F54FA591B491BCA782
:10301000ABA7FC01E353F54F84918AAB9C9180955B
:1030200098239C93BB20F1F088A587FD1BC061E02D
:103030000E94AC3661E088A50E94E53661E070E050
:1030400080E090E00E94A63560E088A50E94E53609
:103050006AE070E080E090E00E94A63561E088A51B
:103060000E94E5368D8D9E8D009739F04DA95EA9A1
:103070006FA978AD0E94101C0FC08B8D9C8D892B81
:1030800021F08EAD9FAD0E94E614EFA5F8A99081C6
:103090008CA980958923808344E06BE870E0CE01A1
:1030A0000E941D166E816150CE010E94751544E08C
:1030B00067E870E0CE010E941D168AA1813011F4EC
:1030C00060E101C064E1CE010E94751544E063E84F
:1030D00070E0CE010E941D168FE88DAF8C819D811E
:1030E0008038910571F48E819F8180349105B9F407
:1030F0008AA1813011F48FE901C08FEC8DAF12E10C
:103100000FC08036910559F48E819F81409739F424
:103110008AA1813011F480E101C08FEA8DAF12E005
:103120006AEDCE010E947515612FCE010E947515C2
:1031300061E8CE010E9475156DADCE010E94751536
:1031400069EDCE010E9475158AA1813011F462E209
:1031500001C061EFCE010E94751546E06DE770E099
:10316000CE010E941D168D8D9E8D009739F049ADC0
:103170005AAD6BAD7CAD0E94101C0CC0EFA5F8A938
:1031800080819CA9892B80838B8D9C8D892B11F04C
:103190000E94071581E0DF91CF911F910F91FF9061
:1031A000EF90DF90CF90BF90AF909F908F90089559
:1031B0000F931F93CF93DF93FC0157FD5FC0868170
:1031C0009781481759070CF059C077FF04C0260FA4
:1031D000371F60E070E0A481B581CB01820F931F9F
:1031E000A817B9071CF49D01261B370B12161306EE
:1031F0000CF044C0CA0157FD0796EC0183E0D59559
:10320000C7958A95E1F7CA9FC001CB9F900DDA9FC1
:10321000900D1124860F971F078CF0A1E02DE80F69
:10322000F91F4770552781E090E001C0880F4A954B
:10323000EAF7482F0130110539F078F00230110516
:10324000E9F42E0F3F1F13C02E0F3F1FE217F307A5
:10325000A9F08081842B8193F9CF80952E0F3F1F99
:10326000E217F30759F0908198239193F9CFE21771
:10327000F30721F0808184278193F9CFDF91CF91EB
:103280001F910F910895FF920F931F93CF93DF9398
:10329000EC0177FD96C0AC81BD816A177B070CF00D
:1032A00090C057FF04C0240F351F40E050E08E81CE
:1032B0009F81FA01E20FF31F8E179F071CF49C01F8
:1032C000241B350B121613060CF07BC0F22E542F64
:1032D0005695569556955A9FC0015B9F900D1124A7
:1032E000860F971FAF8DB8A1A80FB91F477071F156
:1032F00088E0841B482F90E0FC01EB58FF4F54916D
:10330000241760F4BC01621B71098FEF90E0062E58
:1033100002C0959587950A94E2F75823013011056C
:1033200039F048F00230110551F48C91852706C020
:103330008C91852B03C050958C9185238C938C8127
:103340009D81F41608F43DC0A80FB91FEF2DE41BB2
:10335000E83000F10230110561F42E2F8C91809538
:103360008C938C819D81A80FB91F28502830B0F70D
:1033700010C081E00115110509F480E0382F319566
:103380002E2F3C938C819D81A80FB91F2850283087
:10339000C0F7E770EE23A9F0F0E0E359FF4FE491A6
:1033A0000130110539F048F00230110551F48C91CB
:1033B0008E2706C08C918E2B03C0E0958C918E23B6
:1033C0008C93DF91CF911F910F91FF9008950F93F0
:1033D0001F93CF93DF93DC015696EC91E23061F0BE
:1033E000E33001F1E13059F5DB01EC01EC81FD81C5
:1033F000E41BF50B31971EC0DC011496ED91FC9196
:103400001597EF01C61BD70BBE011696ED91FC91E7
:103410001797DF01A41BB50BAD0141505109621B89
:10342000730B0DC0FA01EC01AE81BF81A61BB70B77
:10343000A21BB30BAD01BF010E94431902C00E9441
:10344000D818DF91CF911F910F9108950F931F937B
:10345000CF93DF93DC015696EC91E23069F0E330D4
:1034600009F1E13059F5DB01EC01EC81FD81E41B50
:10347000F50BE21BF30B1DC0DC011496ED91FC91E2
:103480001597EF01C61BD70BBE0161507109169647
:10349000ED91FC911797DF01A41BB50BAD01421B09
:1034A000530B0CC0FA01EC01AE81BF81A61BB70B18
:1034B0001197AD01BF010E94D81802C00E944319A4
:1034C000DF91CF911F910F910895AF92BF92CF924C
:1034D000DF92EF92FF920F931F93CF93DF93EC0154
:1034E0008D8D9E8D009739F04DA95EA96FA978AD9D
:1034F0000E94101C0FC08B8D9C8D892B21F08EADEE
:103500009FAD0E94E614EFA5F8A990818CA9809543
:103510008923808345E068E670E0CE010E941D1695
:103520006C816150CE010E9475152E813F81C901C9
:10353000079697FF02C0C9010E9623E095958795DF
:103540002A95E1F72C813D81829F6001839FD00CF9
:10355000929FD00C1124EF8CF8A08D8D9E8D00973A
:1035600009F44CC069A1772767FD70950E941E1C65
:103570008D8D9E8DDC01ED91FC910190F081E02D0F
:1035800060E409958701A12CB12CEE24E394F12C81
:103590008D8D9E8DAC14BD0471F1B0E2EB16F1047B
:1035A000B8F00E94331C69A1772767FD70958D8D57
:1035B0009E8D0E941E1C8D8D9E8DDC01ED91FC91D7
:1035C0000190F081E02D60E40995EE24E394F12C64
:1035D0008D8D9E8DF80161918F01DC01ED91FC9143
:1035E0000190F081E02D0995BFEFEB1AFB0AEFEF98
:1035F000AE1ABE0ACDCF0E94331C3CC0EDA5FEA57D
:1036000080819BA9892B80838701E12CF12CEC140C
:10361000FD0481F1D8018D918D012B8D3C8D232BE3
:1036200019F00E94001522C028E030E040E8E9A52A
:10363000FAA599A9542F582321F05081592B508372
:1036400004C05081909595239083EBA5FCA59081B3
:103650005AA9952B9083EBA5FCA550819AA990952A
:103660009523908346952150310909F7BFEFEB1A56
:10367000FB0ACDCF8D8D9E8D009781F049AD5AAD5F
:103680006BAD7CADDF91CF911F910F91FF90EF90CB
:10369000DF90CF90BF90AF900C94101CEFA5F8A9CD
:1036A00080819CA9892B80838B8D9C8D892B61F0D7
:1036B000DF91CF911F910F91FF90EF90DF90CF900E
:1036C000BF90AF900C940715DF91CF911F910F9190
:1036D000FF90EF90DF90CF90BF90AF9008958091D2
:1036E000AF0290E02091B002821B910908952091D1
:1036F000B0028091AF02281750F4E22FF0E0EF54AF
:10370000FD4F808190E02F5F2093B00208958FEFEE
:103710009FEF0895E091B0028091AF02E81730F476
:10372000F0E0EF54FD4F808190E008958FEF9FEF20
:1037300008950895CF92DF92EF92FF920F931F9317
:10374000CF93DF937C01CB018A0120918B0222234E
:1037500089F0EB016B01C40ED51ECC15DD0569F0B7
:103760006991D701ED91FC910190F081E02DC701A5
:103770000995F3CF642F0E94C21CC801DF91CF913D
:103780001F910F91FF90EF90DF90CF900895CF930E
:10379000DF931F92CDB7DEB7698320918B0222237E
:1037A000D1F020918C02203240F021E030E0FC0189
:1037B0003383228380E090E015C080918D02E82F52
:1037C000F0E0E257FD4F998190838F5F80938D02E7
:1037D00080938C0205C061E0CE0101960E94C21C5C
:1037E00081E090E00F90DF91CF910895FC0113826A
:1037F000128248EE53E060E070E0448355836683B4
:10380000778388E791E09183808308951092B002D6
:103810001092AF0210928D0210928C020C943A1CFE
:10382000CB01BA010C94581C81E080938B02609309
:10383000AE0210928D0210928C0208950C94141C0A
:103840000F93062F21E040918C026EE872E0809188
:10385000AE020E946B1C10928D0210928C0210928C
:103860008B020F91089561E00C94201C8FE792E089
:103870000C94F61B10923E0381E080933C0310925F
:103880003B0361E082E10E94E53661E083E10E9452
:10389000E536E9EBF0E080818E7F808380818D7F4B
:1038A000808388E48093B80085E48093BC00089509
:1038B0009B01AC0160E074E284EF90E00E94B73AB3
:1038C000205131094109510956954795379527955A
:1038D0002093B80008950F93413208F04AC09091A8
:1038E0003E039111FCCF92E090933E0300933C0382
:1038F0009FEF9093D1021092160340931503FB01A2
:1039000067E173E0DB019A2F961B941718F49191ED
:103910009D93F9CF10923D0390913D03880F892B21
:1039200080933D0380913B03813061F410923B030F
:1039300080913D038093BB008091BC0083FDF8CF54
:1039400085EC01C085EE8093BC00222321F080919C
:103950003E038230E1F38091D1028F3F61F080918C
:10396000D102803251F08091D102803341F483E062
:1039700007C081E005C080E003C082E001C084E0B0
:103980000F9108954091F302262F30E0240F311D4E
:1039900021323105DCF420913E032430C9F4FC01CE
:1039A00080E090E0861758F43091F3022191DC0119
:1039B000AB50BD4FA30FB11D2C930196F3CF809157
:1039C000F302860F8093F30280E0089581E008956A
:1039D00082E0089585ED8093BC008091BC0084FD59
:1039E000FCCF10923E03089585EC8093BC001092AA
:1039F0003E0308951F920F920FB60F9211242F933A
:103A00003F934F935F936F937F938F939F93AF9366
:103A1000BF93EF93FF938091B900887F803609F4BC
:103A20009EC078F5883209F45DC090F4803109F4C5
:103A300056C038F4882309F4F5C0883009F44FC023
:103A4000F5C0883109F44EC0803209F45FC0EEC081
:103A5000803409F46AC058F4803309F457C08833BD
:103A600009F0E4C08093D1020E94F41CDFC08035CD
:103A700009F44FC0883509F45DC0883409F0D6C018
:103A8000D3C0883909F4C4C0A8F4883709F467C0E2
:103A900038F4883609F463C0803709F460C0C6C0C2
:103AA000883809F4B5C0803909F45FC0803809F05E
:103AB000BDC05BC0803B09F483C038F4803A09F490
:103AC00066C0883A09F47CC0B1C0803C09F4A4C047
:103AD000883C09F4A1C0883B09F487C0A7C0809145
:103AE0003D0310C09091160380911503981770F54F
:103AF000E091160381E08E0F80931603F0E0E95EFB
:103B0000FC4F80818093BB0085EC83C08093D10201
:103B10008BC0E091160381E08E0F80931603809195
:103B2000BB00F0E0E95EFC4F80839091160380912A
:103B300015036BC0E091160381E08E0F809316038E
:103B40008091BB00F0E0E95EFC4F808380913C03F4
:103B500081116AC081E080933B0384EA5EC083E008
:103B600080933E031092D202CFCF8091D202803256
:103B700008F04EC0E091D20281E08E0F8093D20215
:103B80008091BB00F0E0ED52FD4F8083BDCF0E94DD
:103B9000F41C8091D202803230F4E091D202F0E045
:103BA000ED52FD4F10826091D20270E0E091370338
:103BB000F091380383ED92E009951092D20236C05D
:103BC00084E080933E031092F4021092F302E0919D
:103BD0003903F0913A0309958091F302811105C0F0
:103BE00081E08093F3021092F502E091F40281E00B
:103BF0008E0F8093F402F0E0EB50FD4F80818093B4
:103C0000BB009091F4028091F302981708F47CCFE6
:103C100085E88093BC000AC085EC8093BC001092BC
:103C20003E0304C01092D1020E94EA1CFF91EF9162
:103C3000BF91AF919F918F917F916F915F914F91C4
:103C40003F912F910F900FBE0F901F901895CF931B
:103C5000CFB7F89480914203811127C0EBEEFAE0D0
:103C60008491E7EDFAE09491E82FF0E0EE0FFF1F6A
:103C7000E75FF44FA591B4918C91892321F461E021
:103C80008AE00E94E53661E08AE00E94AC368CB59D
:103C900080618CBD8CB580648CBD61E08DE00E943C
:103CA000AC3661E08BE00E94AC36809142038F5FBE
:103CB00080934203CFBFCF9108952F923F924F92AE
:103CC0005F926F927F928F929F92AF92BF92CF92AC
:103CD000DF92EF92FF920F931F93CF93DF9300D069
:103CE00000D0CDB7DEB74C017C836B836A015901EC
:103CF000C8018701AC014C195D0957FF03C05195FC
:103D00004195510995016B817C81261B370B37FF4B
:103D100003C031952195310922242394312C241795
:103D2000350714F0212C312C2114310459F03A2D8F
:103D30002B2D5C01832F922F3B812C81DC82CB8247
:103D4000C32ED22EAB81BC81AA16BB065CF43C2DDF
:103D50002D2D6C01832F922F3B812C81BC82AB8255
:103D6000A32EB22E2501EB81FC814E1A5F0A3C0185
:103D70006C187D0877FE03C071946194710872011C
:103D800057FE03C0FFEFEF1AFF0AF594E794C81639
:103D9000D9062CF421E030E03A83298324C06FEF68
:103DA0007FEF7A8369831FC0D401ED91FC91008479
:103DB000F185E02D980121143104D9F04B815C810B
:103DC000B601C4010995E618F708F7FE06C0E981B7
:103DD000FA81CE0EDF1EE40CF51C2B813C812F5F97
:103DE0003F4F3C832B836B817C81A616B706E4F69C
:103DF00004C0A6016B817C81E4CF0F900F900F90DF
:103E00000F90DF91CF911F910F91FF90EF90DF9076
:103E1000CF90BF90AF909F908F907F906F905F906A
:103E20004F903F902F9008950895DC01ED91FC9103
:103E30000480F581E02D09940F931F93DC01ED912F
:103E4000FC91008CF18DE02D09951F910F91089543
:103E50000F931F93DC01ED91FC91028CF38DE02D0B
:103E600009951F910F910895EF92FF920F931F9361
:103E7000DC01ED91FC91048CF58DE02D09951F91ED
:103E80000F91FF90EF9008950895AF92BF92CF9257
:103E9000DF92EF92FF920F931F93CF93DF9300D0A7
:103EA00000D0CDB7DEB75C0169017801DC01ED918E
:103EB000FC910680F781E02D4B835C8369837A83D4
:103EC0000995D501ED91FC914B815C818A010C0D26
:103ED0001D1D015011090088F189E02D69817A8149
:103EE0009B01C5010995D501ED91FC910288F389EB
:103EF000E02DC5010F900F900F900F90DF91CF91A3
:103F00001F910F91FF90EF90DF90CF90BF90AF90F7
:103F10000994AF92BF92CF92DF92EF92FF920F93EC
:103F20001F93CF93DF9300D000D0CDB7DEB75C01F5
:103F30006901DC01ED91FC910680F781E02D4B8356
:103F40005C8369837A830995D501ED91FC91698140
:103F50007A819B012C0D3D1D215031090088F1898A
:103F6000E02D78014B815C818A01C5010995D5015D
:103F7000ED91FC910288F389E02DC5010F900F901F
:103F80000F900F90DF91CF911F910F91FF90EF90C5
:103F9000DF90CF90BF90AF9009944F925F926F9255
:103FA0007F928F929F92AF92BF92CF92DF92EF92C9
:103FB000FF920F931F93CF93DF9300D0CDB7DEB75F
:103FC0006C014A0159013801DC01ED91FC91068038
:103FD000F781E02D69837A8309956981462E7A817C
:103FE000572EA40CB51CD601ED91FC914A145B042C
:103FF0006CF40484F585E02D87019301A401B201DE
:10400000C6010995BFEF4B1A5B0AEDCF0288F38911
:10401000E02DC6010F900F90DF91CF911F910F916E
:10402000FF90EF90DF90CF90BF90AF909F908F90D8
:104030007F906F905F904F900994EF92FF920F9353
:104040001F93DC01ED91FC9111971A960D911C9133
:104050001B9718962D913C911997048CF58DE02DA6
:104060007B0140E050E060E070E009951F910F9106
:10407000FF90EF900895CF92DF92EF92FF920F930F
:104080001F93CF93DF9300D000D000D0CDB7DEB721
:104090006C01DC01ED91FC916217730789F4041740
:1040A00015072CF4942F852FA801092F182F98019C
:1040B000241B350B2F5F3F4F008CF18DE02D12C07C
:1040C0004017510709F5261737072CF4962F872F2D
:1040D000B901292F382F261B370B2F5F3F4F028C3A
:1040E000F38DE02D8701C601099526960FB6F89449
:1040F000DEBF0FBECDBFDF91CF911F910F91FF901B
:10410000EF90DF90CF9008950680F781E02D2D830A
:104110003E834B835C8369837A830995D601ED9155
:10412000FC910088F189E02D2D813E814B815C81DD
:1041300069817A81C6010995D601ED91FC910288C9
:10414000F389E02DC60126960FB6F894DEBF0FBEA8
:10415000CDBFDF91CF911F910F91FF90EF90DF9036
:10416000CF9009946F927F928F929F92AF92BF925D
:10417000CF92DF92EF92FF920F931F93CF93DF9333
:10418000EC015B016A0139014801E881F98106808F
:10419000F781E02D0995E881F9810684F785E02D06
:1041A00087019301A601B501CE010995E881F98146
:1041B000A601480D591D415051090684F785E02D8F
:1041C0009301B501CE010995E881F9810484F58553
:1041D000E02D9401A601B501CE010995E881F98190
:1041E000B501660D771D615071090484F585E02DD8
:1041F0009401A601CE010995E881F9810288F3892D
:10420000E02DCE01DF91CF911F910F91FF90EF90A4
:10421000DF90CF90BF90AF909F908F907F906F90E6
:1042200009940895FC016370668B848195812681D1
:104230003781613039F0633029F091878087338787
:104240002287089531872087938782870895FC010C
:104250001382128288E891E091838083758364835E
:10426000578346837187608753874287168A1586EE
:1042700014861786168621E0258B248B8FEF9FEFFF
:10428000938B828B918B808B278B108E128E118E4D
:1042900008952F923F924F925F926F927F928F92EA
:1042A0009F92AF92BF92CF92DF92EF92FF920F93C5
:1042B0001F93CF93DF9300D000D000D0CDB7DEB7EF
:1042C0009E838D834B013A016901802F44244394DE
:1042D000512C421A530A22243324221A330A220C64
:1042E000331CAA24A394B12C01E010E0982F947001
:1042F0009983A82FA270AA83B82FB870BB8381704E
:104300008C83C50101978C159D050CF0A6C057FC48
:1043100008C0E1E0CE1AD108F2E02F0E311C420CA9
:10432000531C0E5F1F4F400E511E8981882311F1CF
:10433000AD81BE81ED91FC9111970084F185E02D56
:104340009701A3014C0D5D1DB501680D791DCD01CF
:104350000995AD81BE81ED91FC9111970084F185A5
:10436000E02D9701A501460D571DB4016C0D7D1D73
:10437000CD010995BA81BB2311F1AD81BE81ED91CB
:10438000FC9111970084F185E02D9701A3014C1950
:104390005D09B501680D791DCD010995AD81BE811D
:1043A000ED91FC9111970084F185E02D9701A30117
:1043B0004A195B09B4016C0D7D1DCD010995BB81C6
:1043C000BB2311F1AD81BE81ED91FC911197008469
:1043D000F185E02D9701A501460D571DB4016C191B
:1043E0007D09CD010995AD81BE81ED91FC911197BB
:1043F0000084F185E02D9701A3014C0D5D1DB401F2
:104400006A197B09CD010995BC81BB2311F1AD81EE
:10441000BE81ED91FC9111970084F185E02D97010B
:10442000A3014A195B09B4016C197D09CD010995F5
:10443000AD81BE81ED91FC9111970084F185E02D55
:104440009701A3014C195D09B4016A197B09CD01DB
:104450000995BFEFAB1ABB0A54CF26960FB6F89456
:10446000DEBF0FBECDBFDF91CF911F910F91FF90A7
:10447000EF90DF90CF90BF90AF909F908F907F9004
:104480006F905F904F903F902F9008952F923F92A2
:104490004F925F926F927F928F929F92AF92BF9254
:1044A000CF92DF92EF92FF920F931F93CF93DF9300
:1044B000CDB7DEB72C970FB6F894DEBF0FBECDBFD9
:1044C0005C011B0158874F833C872B873701DE82B5
:1044D000CD82CC24C394D12CC21AD30A2901519481
:1044E00041945108440C551C2FEF621A720A5A83EA
:1044F00049837C826B828B849C84EE24E394F12C30
:10450000302F3170398702700A87C7010197AB8558
:10451000BC858A179B070CF08DC0D7FC0AC08B8521
:104520009C8501979C878B8792E0490E511CC40C97
:10453000D51CC701880F991F0196C80ED91EAB85DF
:10454000BC85AE15BF05C4F1B985BB23C9F0D50143
:10455000ED91FC912B853C85220F331F260D371DD5
:104560000484F585E02D0D811E814F8158858B8552
:104570009C85481B590BB701620D731DC501099538
:104580009A859923C9F0D501ED91FC912B853C8545
:10459000220F331F260D371D0484F585E02D0D8174
:1045A0001E814F8158858B859C85481B590BB10115
:1045B0006E197F09C5010995AB85BC85A815B9059C
:1045C00051F1B985BB2389F0D501ED91FC910484AB
:1045D000F585E02D0D811E812B813C8149815A8119
:1045E000B101680D791DC5010995BA85BB2389F014
:1045F000D501ED91FC91B101681979090484F58523
:10460000E02D0D811E812B813C8149815A81C5019C
:1046100009958B849C84BFEFEB1AFB0AE981FA8130
:104620003197FA83E9832B813C812E5F3F4F3C8396
:104630002B836BCF2C960FB6F894DEBF0FBECDBF89
:10464000DF91CF911F910F91FF90EF90DF90CF906E
:10465000BF90AF909F908F907F906F905F904F90A2
:104660003F902F9008956F927F928F929F92AF927A
:10467000BF92CF92DF92EF92FF920F931F93CF934F
:10468000DF93EC014B013A0159016801E881F9819E
:104690000680F781E02D0995E881F9819501220FC7
:1046A000331F2F5F3F4FA3014A195B090484F5852F
:1046B000E02DB401CE010995E12CF12C03E0950128
:1046C000A301B401CE010E944622E881F98102884B
:1046D000F389E02DCE01DF91CF911F910F91FF90D3
:1046E000EF90DF90CF90BF90AF909F908F907F9092
:1046F0006F9009942F923F924F925F926F927F92A8
:104700008F929F92AF92BF92CF92DF92EF92FF92E1
:104710000F931F93CF93DF93CDB7DEB728970FB6D4
:10472000F894DEBF0FBECDBF98878F837A836983ED
:104730002A0149013801201731073CF4590137FF9C
:104740000AC08FEFA81AB80A06C0580117FF03C0A5
:104750009FEFA91AB90AB594A794EA14FB040CF4C4
:104760005701AF81B885ED91FC9111970680F781D3
:10477000E02DCD010995EE24FF24EA18FB08EE0C8C
:10478000FF1CF401EE0DFF1DFC83EB8329803A80B2
:104790002A0C3B1CAF81B885ED91FC9111970684E2
:1047A000F785E02D86012B813C81A201B101CD016D
:1047B0000995F201E60DF71DFE83ED83AF81B88503
:1047C000ED91FC9111974D815E8141505109068414
:1047D000F785E02D2B813C81B101CD0109956E0C4F
:1047E0007F1C4A0C5B1CAF81B885ED91FC91119741
:1047F0000484F585E02D9301A20169817A81CD01C0
:104800000995E981FA818E0E9F1EAF81B885ED91E1
:10481000FC911197B401615071090484F585E02D74
:104820009301A201CD010995760101E09501A20154
:10483000B1018F8198850E9449218A189B08B1E0B7
:104840008B1A910802E09501A201B4018F8198852D
:104850000E9449216D807E806A187B08E1E06E1A13
:10486000710804E09501A301B4018F8198850E942D
:10487000492108E09501A301B1018F8198850E942B
:104880004921AF81B885ED91FC9111970288F38998
:10489000E02DCD0128960FB6F894DEBF0FBECDBF38
:1048A000DF91CF911F910F91FF90EF90DF90CF900C
:1048B000BF90AF909F908F907F906F905F904F9040
:1048C0003F902F9009942F923F924F925F926F9258
:1048D0007F928F929F92AF92BF92CF92DF92EF9290
:1048E000FF920F931F93CF93DF9300D000D000D09F
:1048F000CDB7DEB79E838D837C836B833A0129011C
:1049000048011601201731073CF4590137FF0AC04E
:104910008FEFA81AB80A06C0580117FF03C09FEF0F
:10492000A91AB90AB594A794EA14FB040CF4570128
:10493000AD81BE81ED91FC9111970680F781E02D4C
:10494000CD010995CC24DD24CA18DB08CC0CDD1C74
:10495000EB81FC81EA0DFB1DFA83E983AD81BE8109
:10496000ED91FC91119792012C0D3D1D0284F38570
:10497000E02D71018401A30169817A81CD0109953E
:104980008C0C9D1CB1E08B1A91086A0C7B1C6B810E
:104990007C81640D751D6A197B0961507109610183
:1049A000740101E09501A3018D819E810E94462240
:1049B00002E09501A30169817A818D819E810E9427
:1049C0004622AD81BE81ED91FC9111970288F38959
:1049D000E02DCD0126960FB6F894DEBF0FBECDBFF9
:1049E000DF91CF911F910F91FF90EF90DF90CF90CB
:1049F000BF90AF909F908F907F906F905F904F90FF
:104A00003F902F9009943F924F925F926F927F92C6
:104A10008F929F92AF92BF92CF92DF92EF92FF92CE
:104A20000F931F93CF93DF93CDB7DEB72A970FB6BF
:104A3000F894DEBF0FBECDBF5C017E836D835887C7
:104A40004F8329013701DC01ED91FC910680F7814C
:104A5000E02D0995C801079697FF02C0C8010E9680
:104A6000FC0193E0F595E7959A95E1F7FA83E983E0
:104A7000812C912CE12CF12C312C8F8198858E0D7D
:104A80009F1D9C838B83E614F7040CF03EC01A86AE
:104A90001986E985FA85E017F1077CF589859A85FD
:104AA00087709927892B11F0330C0EC0E985FA85A0
:104AB000F7FD379683E0F595E7958A95E1F7E80DE0
:104AC000F91DE40DF51D349037FE11C0D501ED91AF
:104AD000FC910084F185E02D96014B815C816D8114
:104AE0007E8189859A85680F791FC5010995A985F9
:104AF000BA851196BA87A987CCCFFFEFEF1AFF0AC4
:104B000029813A81820E931EB8CFD501ED91FC9197
:104B10000288F389E02DC5012A960FB6F894DEBF0E
:104B20000FBECDBFDF91CF911F910F91FF90EF90FE
:104B3000DF90CF90BF90AF909F908F907F906F90BD
:104B40005F904F903F9009942F923F924F925F92C7
:104B50006F927F928F929F92AF92BF92CF92DF928D
:104B6000EF92FF920F931F93CF93DF93CDB7DEB7F2
:104B70006C970FB6F894DEBF0FBECDBF9C8F8B8FA6
:104B80001B014A011B870A873701C982DC0159963C
:104B90004D915C915A974115510509F001C1189644
:104BA0008D919C911997681779070CF0EAC11A96B4
:104BB0008D919C911B97881699060CF0E2C1EC2D03
:104BC000F0E0FB83EA83AB0186E0C89E400D511DF7
:104BD0001124598B488B141615060CF0D2C1AA2D3E
:104BE000B0E0BF87AE8793E0AA0FBB1F9A95E1F7AD
:104BF000BB8BAA8BCD01880D991D181619060CF0D8
:104C0000C0C1EB8DFC8D808D811103C0203B08F06D
:104C10002F5FAB8DBC8DED91FC9111970680F781D4
:104C2000E02DCD012A8F0995F981EF2FF0E0FD8B62
:104C3000EC8BA1014B5F5F4F5F8B4E8B21013D825F
:104C40002C828FE2C82E85E0D82EC218D3082A8D78
:104C500055E0259FC00CD11C11248A2D90E0998F1E
:104C6000888FF601E40DF51DB4909F828E8299869F
:104C7000888698E09C87B0FE16C0AB8DBC8DED9108
:104C8000FC91B981B13049F421E0A21206C0008440
:104C9000F185E02D2A853B8519C00284F385E02D3E
:104CA000EA84FB841EC04A855B856416750621F183
:104CB000AB8DBC8DED91FC91B981B13071F421E0E7
:104CC000A2120BC00084F185E02D9301488559851F
:104CD000B2018B8D9C8D09950FC00284F385E02D68
:104CE00073010E851F852A813B814E815F816C8116
:104CF0007D818B8D9C8D0995B6943C8531503C8788
:104D00004E815F81888D998D480F591F5F834E8337
:104D1000A885B9851196B987A8873111ACCFEC81E8
:104D2000FD812C893D89E20FF31FFD83EC833FEF6A
:104D3000431A530A4E895F894416550609F091CFEC
:104D40008A859B856816790609F4F9C0AB8DBC8D00
:104D5000ED91FC91B981B13089F421E0A2120EC02D
:104D6000B1016B5F7F4F0484F585E02D830128E05E
:104D700030E0A4018B8D9C8D0995E1C0688979890B
:104D80004A815B81641B750B0284F385E02D7301FE
:104D90000A891B899A01A4018B8D9C8D0995CFC02E
:104DA000FA0134963491FA01329685919491231B3D
:104DB000B7E02B9F800D911D1124FA0125913491AC
:104DC0003B8B2A8BFC01459154915B834A83FC0108
:104DD000329654915887FC013396A491A88BFC011C
:104DE0003596D490FC0136964490B981B23018F4CF
:104DF000E1E0EA1568F42D2D332727FD30953D833A
:104E00002C83442D552747FD50955F834E8304C066
:104E10001F821E821D821C82EB8DFC8DA081B181C0
:104E20001696ED91FC9117978B8D9C8D0995612CB1
:104E3000712CB12C2A2D30E03D872C875981452FCC
:104E400050E05F874E87C401840D911D47FC9A9501
:104E50009F8B8E8BD101AD0DB11DD7FCBA95B98F4B
:104E6000A88F8889B81608F06AC08B2D90E02E8133
:104E70003F81280F391FAC85BD852A9F20012B9FBC
:104E8000500C3A9F500C1124480C591C262DD12C43
:104E9000EE89FF89E80FF91FFD8BEC8B5885D5163D
:104EA00008F04AC0CC24C394C20E277059F4EA8992
:104EB000FB892A813B81E20FF31F74902F5F3F4FE4
:104EC0003B832A8377FE34C0AB8DBC8DED91FC9182
:104ED000B981B13091F421E0A2120FC00084F185B4
:104EE000E02D2A853B854C895D89688D798D6D0D16
:104EF000711D8B8D9C8D09951BC08C819D818D0DA5
:104F0000911D4E855F85849FB001859F700D949F94
:104F1000700D1124620D731D0284F385E02DEA8467
:104F2000FB840C851D859A01A2018B8D9C8D0995B2
:104F3000770CD3942C2DB2CF650EB39492CFAB8D5A
:104F4000BC8DED91FC9111970288F389E02DCD0184
:104F50006C960FB6F894DEBF0FBECDBFDF91CF9138
:104F60001F910F91FF90EF90DF90CF90BF90AF9087
:104F70009F908F907F906F905F904F903F902F9079
:104F800009946C960FB6F894DEBF0FBECDBFDF91CB
:104F9000CF911F910F91FF90EF90DF90CF90BF9036
:104FA000AF909F908F907F906F905F904F903F90C9
:104FB0002F9008958F929F92AF92CF92EF92FF928F
:104FC0000F931F93CF93DF93EC01262F898D9A8D3A
:104FD000009709F044C06A3069F41D861C862D894B
:104FE0008E859F8538E0239F800D911D11249F871A
:104FF0008E87AEC06D3009F4ABC08F898823C9F0AD
:105000003C898C859D8546E0349F800D911D11243F
:10501000488559854817590764F41D861C863D89C3
:105020008E859F8548E0349F800D911D11249F87B8
:105030008E87EA88FB88088919894E855F856C858B
:105040007D85AD88CC88CE010E94A4252C898C85D5
:105050009D8536E0239F800D911D112440C06A304C
:1050600079F41D861C864D89FC01389684912E8525
:105070003F85489F200D311D11243F872E8768C032
:105080006D3009F465C0FC0134963491631708F45F
:105090005FC0FC013696E491E61708F459C0462F2C
:1050A000431B342FFC0132968590949047E0349F47
:1050B000800C911C1124F4013296A491F4013396D2
:1050C000E491AA2311F0E1110DC0F401349684900B
:1050D0002C898C859D85829E800D911D11249D8734
:1050E0008C8736C0F4013596E4913F89332311F162
:1050F0003C89B0E0AE0FB11DE7FDBA953A9FA00123
:105100003B9F500D11246C857D85460F571F688588
:1051100079856417750774F41D861C863D89FC012A
:10512000389684914E855F85389F400D511D11241E
:105130005F874E87EA88FB88088919894E855F85D5
:105140006C857D85AD88CC88CE010E94A425BDCF1D
:1051500081E090E0DF91CF911F910F91FF90EF9050
:10516000CF90AF909F908F900895611101C061E042
:10517000FC01648B411101C041E0FC01458B0895A5
:10518000462F0C94B5280895CF92DF92EF92FF92AC
:105190000F931F9383E493E00E94EA1681E090E06E
:1051A0009093560380935503909354038093530335
:1051B00062E083E493E00E94C0288DE090E0909349
:1051C000500380934F0310925203109251036FEAE1
:1051D0007AE083E493E00E94F737CC24C394D12C87
:1051E00093E0E92EF12C04E210E02BE430E045E1FD
:1051F00050E06BE170E083E493E00E946324C12CF3
:10520000D12C0EE110E025E430E048E150E06EE101
:1052100070E083E493E00E946324CC24C394D12CF7
:1052200032E0E32EF12C03E010E020E130E04CE12D
:1052300050E06EE470E083E493E00E94632400E1B8
:1052400010E023E030E04CE150E06CE570E083E4F6
:1052500093E00E94632483E493E01F910F91FF90F9
:10526000EF90DF90CF900C94651ACF92DF92EF927F
:10527000FF920F931F93CF93C82FCC24C394D12CAC
:1052800093E0E92EF12C00E210E020E430E040E170
:1052900050E060E270E083E493E00E94632423E343
:1052A00030E03093500320934F032CE130E03093F3
:1052B00052032093510310925603109255031092FB
:1052C000540310925303CC2319F065E37AE002C033
:1052D0006FE27AE083E493E00E94F73783E493E09F
:1052E000CF911F910F91FF90EF90DF90CF900C9492
:1052F000651ACF93C82F61E086E00E94E536C13081
:1053000021F0C23029F480E001C081E00E943529FB
:1053100064EF71E080E090E00E94A63560E086E0F6
:105320000E94E53683E493E0CF910C94EA1680E086
:105330000E94C33483E00E94792961E087E00E94E3
:10534000E53661E088E00E94E53664E670E080E0E2
:1053500090E00E94A63560E088E00C94E53683E496
:1053600093E00E94EA1683E00E94792960E08CE0D5
:105370000E94E53683E493E00E94651A60E087E0CE
:105380000E94E53640E050E067E979E280E00E9463
:10539000A33483B7817F846083BF83B7816083BF79
:1053A00083B7816083BF889583B78E7F83BF83B7C0
:1053B0008E7F83BF08958091A9039091AA03A09145
:1053C000AB03B091AC038093AD039093AE03A09375
:1053D000AF03B093B00308958EE00E940736909318
:1053E000C7038093C6030895CF93DF93EC010E9417
:1053F000EC298091C6039091C7039C012450310988
:105400002C173D073CF49C012C5F3F4F81E0C217F5
:10541000D3070CF080E0DF91CF9108950F931F9395
:10542000CF93DF938C01EB010E94EC2985EB91E097
:105430000E94F4298823A9F088819981AA81BB81DF
:105440004091B5035091B6036091B7037091B803D2
:10545000841B950BA60BB70B853B9105A105B105E8
:10546000F8F480E092E00E94F429882399F14881C1
:1054700059816A817B818091B5039091B603A09197
:10548000B703B091B803481B590B6A0B7B0B453B24
:10549000510561057105F0F0F80180818F5F03C04F
:1054A000F80180818150808383E493E00E94EA16B2
:1054B00088819981AA81BB818093B5039093B603BB
:1054C000A093B703B093B803DF91CF911F910F91D1
:1054D0000C94DB29DF91CF911F910F91089582E009
:1054E0000E941B3721E0019709F420E02093C403B8
:1054F0000895CF92DF92EF92FF920F93CF93C0E087
:105500000E9477356B017C010E946F2A6C2F70E03E
:1055100086E00E942436CA3F10F4CE5E01C0C0E08F
:105520008091C403882361F060E086E00E94E53644
:10553000CF910F91FF90EF90DF90CF900C94DB29EB
:105540008091B5039091B603A091B703B091B803D1
:10555000A7019601281B390B4A0B5B0B2B30310539
:105560004105510568F2C092B503D092B603E092AE
:10557000B703F092B80300E020E230E04FEF5FEFB6
:105580006FEF7FE087EA93E00E948B0CB9CF8F9298
:105590009F92AF92BF92CF92DF92EF92FF920F93C2
:1055A00083E090E09093A8038093A70364E070E009
:1055B00085E993E00E94A11080EA882E86E8982E63
:1055C000AA24A394B12C90E8C92E9AE1D92E96E092
:1055D000E92EF12C0FEF2FE732E040E460E883E49E
:1055E00093E00E9418150F91FF90EF90DF90CF90FD
:1055F000BF90AF909F908F90089583E493E00C94B8
:1056000063159F92AF92BF92CF92DF92EF92FF927B
:105610000F931F93CF93DF93A82E962ED42FC22FD4
:10562000B02ECC24C394D12C93E0E92EF12C0EE3C0
:1056300010E020E830E042E050E060E070E083E419
:1056400093E00E947A23292D30E06A2D70E000E07B
:1056500010E042E050E083E493E00E94E71981E02B
:1056600090E0909356038093550390935403809356
:1056700053036B2D83E493E00E94C0284D2F50E02C
:105680005093500340934F032C2F30E0309352033C
:1056900020935103DF91CF911F910F91FF90EF90D5
:1056A000DF90CF90BF90AF909F9008955F926F92E0
:1056B0007F928F929F92AF92BF92CF92DF92EF92A2
:1056C000FF920F931F93CF93DF9385E993E00E949E
:1056D000A61083E493E00E94EA1601E020E04AE18C
:1056E00064E686E10E94012B6AE77AE083E493E0B6
:1056F0000E94F737E12CF12C08E010E02CE030E0BC
:1057000040E050E063E570E083E493E00E94CD1F49
:105710008EE590E09093500380934F0310925203D4
:105720001092510365E77AE083E493E00E94F73733
:10573000712C2CE0622E31E4532E45E5A42EB12CC1
:105740005EE5852E912C0E9477356093A9037093B6
:10575000AA038093AB039093AC030E946F2A63E883
:1057600073E085E993E00E943812882309F49BC016
:1057700089E0871508F482C080918703909188039F
:10578000A0918903B0918A030297A105B10508F49D
:1057900075C0C72DD0E0FE01E654FC4F6F0180912B
:1057A0009D038083E12CF12C0AE010E02FE030E033
:1057B00040E050E063E570E083E493E00E94CD1F99
:1057C000B0925003A0924F031092520310925103D3
:1057D0004AE050E0F601608183E493E00E94813862
:1057E0009092500380924F031092520310925103F3
:1057F00060E77AE083E493E00E94F73761E086E0B7
:105800000E94E53640918703509188036091890397
:1058100070918A03CC0FDD1FCC0FDD1FCF5FDE4FF1
:10582000488359836A837B8380912C0190E0209187
:105830002B0130E03093500320934F039093520399
:105840008093510320E130E083E493E00E94983894
:105850000E94DB2983E493E00E94651A62E370E012
:1058600080E090E00E94A63560E086E00E94E53688
:10587000739480912C01865F80932C0180912C0180
:10588000863368F080912B01863029F460922C01D8
:1058900050922B0104C0813411F483E6782E85E9FF
:1058A00093E00E94BB108091C403882389F0DF91AC
:1058B000CF911F910F91FF90EF90DF90CF90BF900D
:1058C000AF909F908F907F906F905F900C94DB29AA
:1058D00083E493E00E94651A36CFEF92FF920F9314
:1058E0001F93CF93DF9301E020E044E26BE580E279
:1058F0000E94012B63E67AE083E493E00E94F7378D
:105900008CE080932A0185E080932901C1E0D1E0F9
:1059100010E08CE0F82E96E4E92E80912A0190E0C8
:105920002091290130E03093500320934F0390934E
:10593000520380935103499159916991799141158D
:1059400051056105710559F020E130E083E493E0F1
:105950000E94983880912A01865F80932A011F5FF8
:105960001A3051F01530C8F2013021F4F0922A01BA
:10597000E092290100E0D1CFDF91CF911F910F91EB
:10598000FF90EF9008952F923F924F925F926F9207
:105990007F928F929F92AF92BF92CF92DF92EF92BF
:1059A000FF920F931F93CF93DF93CDB7DEB72D9761
:1059B0000FB6F894DEBF0FBECDBF81E08C8785E0C7
:1059C000E4E3F1E0DE01119601900D928A95E1F792
:1059D00082E08A8783E48B8783E493E00E94EA165F
:1059E000512C812C912C54E5252E312C6FE5A62EBF
:1059F000B12C0E9477356E837F83888799870E94B8
:105A000077356093A9037093AA038093AB039093B7
:105A1000AC030E946F2A0E94EC29511007C0BE01FE
:105A20006A5F7F4FCE010C960E940E2A8091C803B8
:105A300081110E94DB298091A9039091AA03A09172
:105A4000AB03B091AC034091AD035091AE036091B4
:105A5000AF037091B003841B950BA60BB70B813C71
:105A60009742A940B10520F00E94DB290E94AF298E
:105A70001C85911002C0115001C01C5F83EE91E0A3
:105A80000E94F4298823C1F08E819F81A885B98561
:105A90004091B5035091B6036091B7037091B8037C
:105AA000841B950BA60BB70B89359240A105B10558
:105AB00018F0511025C102C051102CC08091C403B0
:105AC000882339F18E819F81A885B9858093B5039C
:105AD0009093B603A093B703B093B8030E94DB2959
